{
  "_format": "hh-sol-artifact-1",
  "contractName": "HashStore",
  "sourceName": "contracts/HashStore.sol",
  "abi": [
    {
      "inputs": [],
      "stateMutability": "nonpayable",
      "type": "constructor"
    },
    {
      "anonymous": false,
      "inputs": [
        {
          "indexed": false,
          "internalType": "bytes32",
          "name": "newHash",
          "type": "bytes32"
        },
        {
          "indexed": false,
          "internalType": "uint256",
          "name": "timestamp",
          "type": "uint256"
        }
      ],
      "name": "HashUpdated",
      "type": "event"
    },
    {
      "inputs": [],
      "name": "getHash",
      "outputs": [
        {
          "internalType": "bytes32",
          "name": "",
          "type": "bytes32"
        }
      ],
      "stateMutability": "view",
      "type": "function"
    },
    {
      "inputs": [],
      "name": "owner",
      "outputs": [
        {
          "internalType": "address",
          "name": "",
          "type": "address"
        }
      ],
      "stateMutability": "view",
      "type": "function"
    },
    {
      "inputs": [
        {
          "internalType": "bytes32",
          "name": "_hash",
          "type": "bytes32"
        }
      ],
      "name": "setHash",
      "outputs": [],
      "stateMutability": "nonpayable",
      "type": "function"
    },
    {
      "inputs": [],
      "name": "storedHash",
      "outputs": [
        {
          "internalType": "bytes32",
          "name": "",
          "type": "bytes32"
        }
      ],
      "stateMutability": "view",
      "type": "function"
    }
  ],
  "bytecode": "0x608060405234801561001057600080fd5b5033600160006101000a81548173ffffffffffffffffffffffffffffffffffffffff021916908373ffffffffffffffffffffffffffffffffffffffff1602179055506103b2806100616000396000f3fe608060405234801561001057600080fd5b506004361061004c5760003560e01c80630c4c4285146100515780638da5cb5b1461006d578063b0da51951461008b578063d13319c4146100a9575b600080fd5b61006b6004803603810190610066919061020a565b6100c7565b005b61007561019a565b6040516100829190610278565b60405180910390f35b6100936101c0565b6040516100a091906102a2565b60405180910390f35b6100b16101c6565b6040516100be91906102a2565b60405180910390f35b600160009054906101000a900473ffffffffffffffffffffffffffffffffffffffff1673ffffffffffffffffffffffffffffffffffffffff163373ffffffffffffffffffffffffffffffffffffffff1614610157576040517f08c379a000000000000000000000000000000000000000000000000000000000815260040161014e9061031a565b60405180910390fd5b806000819055507f16c3c8b9c40a42a4c34e1761c4c66df4c5efef6e26121c7ba4028c404a9912cc814260405161018f929190610353565b60405180910390a150565b600160009054906101000a900473ffffffffffffffffffffffffffffffffffffffff1681565b60005481565b60008054905090565b600080fd5b6000819050919050565b6101e7816101d4565b81146101f257600080fd5b50565b600081359050610204816101de565b92915050565b6000602082840312156102205761021f6101cf565b5b600061022e848285016101f5565b91505092915050565b600073ffffffffffffffffffffffffffffffffffffffff82169050919050565b600061026282610237565b9050919050565b61027281610257565b82525050565b600060208201905061028d6000830184610269565b92915050565b61029c816101d4565b82525050565b60006020820190506102b76000830184610293565b92915050565b600082825260208201905092915050565b7f4f6e6c79206f776e657200000000000000000000000000000000000000000000600082015250565b6000610304600a836102bd565b915061030f826102ce565b602082019050919050565b60006020820190508181036000830152610333816102f7565b9050919050565b6000819050919050565b61034d8161033a565b82525050565b60006040820190506103686000830185610293565b6103756020830184610344565b939250505056fea264697066735822122006f5edc3794487327ea95fb4976604b4056fd64e10df12533efd2dec9fc1028264736f6c63430008140033",
  "linkReferences": {},
  "deployedLinkReferences": {}
}