{
  "_format": "hh-sol-artifact-1",
  "contractName": "InheritanceController",
  "sourceName": "contracts/InheritanceController.sol",
  "abi": [
    {
      "inputs": [
        {
          "internalType": "address[]",
          "name": "_addresses",
          "type": "address[]"
        },
        {
          "internalType": "uint256[]",
          "name": "_percentages",
          "type": "uint256[]"
        }
      ],
      "stateMutability": "payable",
      "type": "constructor"
    },
    {
      "inputs": [
        {
          "internalType": "uint256",
          "name": "",
          "type": "uint256"
        }
      ],
      "name": "beneficiaryAddresses",
      "outputs": [
        {
          "internalType": "address",
          "name": "",
          "type": "address"
        }
      ],
      "stateMutability": "view",
      "type": "function"
    },
    {
      "inputs": [],
      "name": "getPercentagesHeirs",
      "outputs": [
        {
          "internalType": "uint256[]",
          "name": "",
          "type": "uint256[]"
        }
      ],
      "stateMutability": "view",
      "type": "function"
    },
    {
      "inputs": [
        {
          "internalType": "address",
          "name": "",
          "type": "address"
        }
      ],
      "name": "heirs",
      "outputs": [
        {
          "internalType": "address",
          "name": "beneficiaryAddress",
          "type": "address"
        },
        {
          "internalType": "uint256",
          "name": "sharePercentage",
          "type": "uint256"
        }
      ],
      "stateMutability": "view",
      "type": "function"
    },
    {
      "inputs": [],
      "name": "owner",
      "outputs": [
        {
          "internalType": "address payable",
          "name": "",
          "type": "address"
        }
      ],
      "stateMutability": "view",
      "type": "function"
    },
    {
      "inputs": [],
      "name": "payHeirs",
      "outputs": [],
      "stateMutability": "nonpayable",
      "type": "function"
    },
    {
      "stateMutability": "payable",
      "type": "receive"
    }
  ],
  "bytecode": "0x60806040526040516200156f3803806200156f833981810160405281019062000029919062000653565b33600260006101000a81548173ffffffffffffffffffffffffffffffffffffffff021916908373ffffffffffffffffffffffffffffffffffffffff1602179055508051825114620000b1576040517f08c379a0000000000000000000000000000000000000000000000000000000008152600401620000a8906200075f565b60405180910390fd5b6000805b835181101562000303576000848281518110620000d757620000d662000781565b5b602002602001015190506000848381518110620000f957620000f862000781565b5b60200260200101519050600073ffffffffffffffffffffffffffffffffffffffff168273ffffffffffffffffffffffffffffffffffffffff160362000175576040517f08c379a00000000000000000000000000000000000000000000000000000000081526004016200016c9062000826565b60405180910390fd5b60008111620001bb576040517f08c379a0000000000000000000000000000000000000000000000000000000008152600401620001b29062000898565b60405180910390fd5b60405180604001604052808373ffffffffffffffffffffffffffffffffffffffff168152602001828152506000808473ffffffffffffffffffffffffffffffffffffffff1673ffffffffffffffffffffffffffffffffffffffff16815260200190815260200160002060008201518160000160006101000a81548173ffffffffffffffffffffffffffffffffffffffff021916908373ffffffffffffffffffffffffffffffffffffffff160217905550602082015181600101559050506001829080600181540180825580915050600190039060005260206000200160009091909190916101000a81548173ffffffffffffffffffffffffffffffffffffffff021916908373ffffffffffffffffffffffffffffffffffffffff1602179055508084620002e99190620008e9565b935050508080620002fa9062000924565b915050620000b5565b5061271081146200034b576040517f08c379a00000000000000000000000000000000000000000000000000000000081526004016200034290620009e7565b60405180910390fd5b50505062000a09565b6000604051905090565b600080fd5b600080fd5b600080fd5b6000601f19601f8301169050919050565b7f4e487b7100000000000000000000000000000000000000000000000000000000600052604160045260246000fd5b620003b8826200036d565b810181811067ffffffffffffffff82111715620003da57620003d96200037e565b5b80604052505050565b6000620003ef62000354565b9050620003fd8282620003ad565b919050565b600067ffffffffffffffff82111562000420576200041f6200037e565b5b602082029050602081019050919050565b600080fd5b600073ffffffffffffffffffffffffffffffffffffffff82169050919050565b6000620004638262000436565b9050919050565b620004758162000456565b81146200048157600080fd5b50565b60008151905062000495816200046a565b92915050565b6000620004b2620004ac8462000402565b620003e3565b90508083825260208201905060208402830185811115620004d857620004d762000431565b5b835b81811015620005055780620004f0888262000484565b845260208401935050602081019050620004da565b5050509392505050565b600082601f83011262000527576200052662000368565b5b8151620005398482602086016200049b565b91505092915050565b600067ffffffffffffffff82111562000560576200055f6200037e565b5b602082029050602081019050919050565b6000819050919050565b620005868162000571565b81146200059257600080fd5b50565b600081519050620005a6816200057b565b92915050565b6000620005c3620005bd8462000542565b620003e3565b90508083825260208201905060208402830185811115620005e957620005e862000431565b5b835b8181101562000616578062000601888262000595565b845260208401935050602081019050620005eb565b5050509392505050565b600082601f83011262000638576200063762000368565b5b81516200064a848260208601620005ac565b91505092915050565b600080604083850312156200066d576200066c6200035e565b5b600083015167ffffffffffffffff8111156200068e576200068d62000363565b5b6200069c858286016200050f565b925050602083015167ffffffffffffffff811115620006c057620006bf62000363565b5b620006ce8582860162000620565b9150509250929050565b600082825260208201905092915050565b7f4e756d65726f206572656469206e6f6e20636f72726973706f6e64656e74652060008201527f616c6c652070657263656e7475616c692e000000000000000000000000000000602082015250565b600062000747603183620006d8565b91506200075482620006e9565b604082019050919050565b600060208201905081810360008301526200077a8162000738565b9050919050565b7f4e487b7100000000000000000000000000000000000000000000000000000000600052603260045260246000fd5b7f496e646972697a7a6f206572656465206e6f6e2076616c69646f20285a65726f60008201527f2041646472657373292e00000000000000000000000000000000000000000000602082015250565b60006200080e602a83620006d8565b91506200081b82620007b0565b604082019050919050565b600060208201905081810360008301526200084181620007ff565b9050919050565b7f50657263656e7475616c65206572656465206e6f6e2076616c6964612e000000600082015250565b600062000880601d83620006d8565b91506200088d8262000848565b602082019050919050565b60006020820190508181036000830152620008b38162000871565b9050919050565b7f4e487b7100000000000000000000000000000000000000000000000000000000600052601160045260246000fd5b6000620008f68262000571565b9150620009038362000571565b92508282019050808211156200091e576200091d620008ba565b5b92915050565b6000620009318262000571565b91507fffffffffffffffffffffffffffffffffffffffffffffffffffffffffffffffff8203620009665762000965620008ba565b5b600182019050919050565b7f4c6120736f6d6d612064656c6c652070657263656e7475616c69206e6f6e206560008201527f272031303030302e000000000000000000000000000000000000000000000000602082015250565b6000620009cf602883620006d8565b9150620009dc8262000971565b604082019050919050565b6000602082019050818103600083015262000a0281620009c0565b9050919050565b610b568062000a196000396000f3fe60806040526004361061004e5760003560e01c8063097bb9e01461005a578063617ef27e1461009757806380a4d683146100ae5780638da5cb5b146100d9578063f45b587c1461010457610055565b3661005557005b600080fd5b34801561006657600080fd5b50610081600480360381019061007c91906105d2565b610142565b60405161008e9190610640565b60405180910390f35b3480156100a357600080fd5b506100ac610181565b005b3480156100ba57600080fd5b506100c3610319565b6040516100d09190610719565b60405180910390f35b3480156100e557600080fd5b506100ee61050a565b6040516100fb919061075c565b60405180910390f35b34801561011057600080fd5b5061012b600480360381019061012691906107a3565b610530565b6040516101399291906107df565b60405180910390f35b6001818154811061015257600080fd5b906000526020600020016000915054906101000a900473ffffffffffffffffffffffffffffffffffffffff1681565b600260009054906101000a900473ffffffffffffffffffffffffffffffffffffffff1673ffffffffffffffffffffffffffffffffffffffff163373ffffffffffffffffffffffffffffffffffffffff1614610211576040517f08c379a0000000000000000000000000000000000000000000000000000000008152600401610208906108b1565b60405180910390fd5b600061021b610319565b905060005b600180549050811015610315576000828281518110610242576102416108d1565b5b6020026020010151905060008111156103015760006001838154811061026b5761026a6108d1565b5b9060005260206000200160009054906101000a900473ffffffffffffffffffffffffffffffffffffffff1673ffffffffffffffffffffffffffffffffffffffff16826040516102b990610931565b60006040518083038185875af1925050503d80600081146102f6576040519150601f19603f3d011682016040523d82523d6000602084013e6102fb565b606091505b50509050505b50808061030d90610975565b915050610220565b5050565b60606000479050600060018054905067ffffffffffffffff811115610341576103406109bd565b5b60405190808252806020026020018201604052801561036f5781602001602082028036833780820191505090505b50905060005b600180549050811015610501576127106000806001848154811061039c5761039b6108d1565b5b9060005260206000200160009054906101000a900473ffffffffffffffffffffffffffffffffffffffff1673ffffffffffffffffffffffffffffffffffffffff1673ffffffffffffffffffffffffffffffffffffffff168152602001908152602001600020600101541115610446576040517f08c379a000000000000000000000000000000000000000000000000000000000815260040161043d90610a5e565b60405180910390fd5b6104cf8360008060018581548110610461576104606108d1565b5b9060005260206000200160009054906101000a900473ffffffffffffffffffffffffffffffffffffffff1673ffffffffffffffffffffffffffffffffffffffff1673ffffffffffffffffffffffffffffffffffffffff16815260200190815260200160002060010154610574565b8282815181106104e2576104e16108d1565b5b60200260200101818152505080806104f990610975565b915050610375565b50809250505090565b600260009054906101000a900473ffffffffffffffffffffffffffffffffffffffff1681565b60006020528060005260406000206000915090508060000160009054906101000a900473ffffffffffffffffffffffffffffffffffffffff16908060010154905082565b600061271082846105859190610a7e565b61058f9190610aef565b905092915050565b600080fd5b6000819050919050565b6105af8161059c565b81146105ba57600080fd5b50565b6000813590506105cc816105a6565b92915050565b6000602082840312156105e8576105e7610597565b5b60006105f6848285016105bd565b91505092915050565b600073ffffffffffffffffffffffffffffffffffffffff82169050919050565b600061062a826105ff565b9050919050565b61063a8161061f565b82525050565b60006020820190506106556000830184610631565b92915050565b600081519050919050565b600082825260208201905092915050565b6000819050602082019050919050565b6106908161059c565b82525050565b60006106a28383610687565b60208301905092915050565b6000602082019050919050565b60006106c68261065b565b6106d08185610666565b93506106db83610677565b8060005b8381101561070c5781516106f38882610696565b97506106fe836106ae565b9250506001810190506106df565b5085935050505092915050565b6000602082019050818103600083015261073381846106bb565b905092915050565b6000610746826105ff565b9050919050565b6107568161073b565b82525050565b6000602082019050610771600083018461074d565b92915050565b6107808161061f565b811461078b57600080fd5b50565b60008135905061079d81610777565b92915050565b6000602082840312156107b9576107b8610597565b5b60006107c78482850161078e565b91505092915050565b6107d98161059c565b82525050565b60006040820190506107f46000830185610631565b61080160208301846107d0565b9392505050565b600082825260208201905092915050565b7f4163636573736f206e656761746f3a20736f6c6f20696c2070726f707269657460008201527f6172696f2070756f27206573656775697265207175657374612066756e7a696f60208201527f6e652e0000000000000000000000000000000000000000000000000000000000604082015250565b600061089b604383610808565b91506108a682610819565b606082019050919050565b600060208201905081810360008301526108ca8161088e565b9050919050565b7f4e487b7100000000000000000000000000000000000000000000000000000000600052603260045260246000fd5b600081905092915050565b50565b600061091b600083610900565b91506109268261090b565b600082019050919050565b600061093c8261090e565b9150819050919050565b7f4e487b7100000000000000000000000000000000000000000000000000000000600052601160045260246000fd5b60006109808261059c565b91507fffffffffffffffffffffffffffffffffffffffffffffffffffffffffffffffff82036109b2576109b1610946565b5b600182019050919050565b7f4e487b7100000000000000000000000000000000000000000000000000000000600052604160045260246000fd5b7f4c612070657263656e7475616c65206e6f6e2070756f2720737570657261726560008201527f20696c20313030252028313030303020425053292e0000000000000000000000602082015250565b6000610a48603583610808565b9150610a53826109ec565b604082019050919050565b60006020820190508181036000830152610a7781610a3b565b9050919050565b6000610a898261059c565b9150610a948361059c565b9250828202610aa28161059c565b91508282048414831517610ab957610ab8610946565b5b5092915050565b7f4e487b7100000000000000000000000000000000000000000000000000000000600052601260045260246000fd5b6000610afa8261059c565b9150610b058361059c565b925082610b1557610b14610ac0565b5b82820490509291505056fea264697066735822122082c68776ed8a364e4deebce7b09707596a5c70d2820994c14aec35c9d5f367c364736f6c63430008140033",
  "linkReferences": {},
  "deployedLinkReferences": {}
}